{
  "_format": "hh-sol-artifact-1",
  "contractName": "PriceConsumer",
  "sourceName": "contracts/PriceConsumer.sol",
  "abi": [
    {
      "inputs": [],
      "stateMutability": "nonpayable",
      "type": "constructor"
    },
    {
      "inputs": [
        {
          "internalType": "uint256",
          "name": "",
          "type": "uint256"
        }
      ],
      "name": "assets",
      "outputs": [
        {
          "internalType": "string",
          "name": "symbol",
          "type": "string"
        },
        {
          "internalType": "address",
          "name": "aggregatorAddress",
          "type": "address"
        }
      ],
      "stateMutability": "view",
      "type": "function"
    },
    {
      "inputs": [
        {
          "internalType": "uint256",
          "name": "index",
          "type": "uint256"
        }
      ],
      "name": "getAsset",
      "outputs": [
        {
          "internalType": "string",
          "name": "",
          "type": "string"
        },
        {
          "internalType": "int256",
          "name": "",
          "type": "int256"
        }
      ],
      "stateMutability": "view",
      "type": "function"
    },
    {
      "inputs": [],
      "name": "getAssetCount",
      "outputs": [
        {
          "internalType": "uint256",
          "name": "",
          "type": "uint256"
        }
      ],
      "stateMutability": "view",
      "type": "function"
    }
  ],
  "bytecode": "0x60806040523480156200001157600080fd5b50600060405180604001604052806040518060400160405280600781526020017f4254432f555344000000000000000000000000000000000000000000000000008152508152602001731b44f3514812d835eb1bdb0acb33d3fa3351ee4373ffffffffffffffffffffffffffffffffffffffff1681525090806001815401808255809150506001900390600052602060002090600202016000909190919091506000820151816000019081620000c8919062000792565b5060208201518160010160006101000a81548173ffffffffffffffffffffffffffffffffffffffff021916908373ffffffffffffffffffffffffffffffffffffffff1602179055505050600060405180604001604052806040518060400160405280600781526020017f4554482f55534400000000000000000000000000000000000000000000000000815250815260200173694aa1769357215de4fac081bf1f309adc32530673ffffffffffffffffffffffffffffffffffffffff1681525090806001815401808255809150506001900390600052602060002090600202016000909190919091506000820151816000019081620001c8919062000792565b5060208201518160010160006101000a81548173ffffffffffffffffffffffffffffffffffffffff021916908373ffffffffffffffffffffffffffffffffffffffff1602179055505050600060405180604001604052806040518060400160405280600a81526020017f4c494e4b202f2055534400000000000000000000000000000000000000000000815250815260200173c59e3633baac79493d908e63626716e204a45edf73ffffffffffffffffffffffffffffffffffffffff1681525090806001815401808255809150506001900390600052602060002090600202016000909190919091506000820151816000019081620002c8919062000792565b5060208201518160010160006101000a81548173ffffffffffffffffffffffffffffffffffffffff021916908373ffffffffffffffffffffffffffffffffffffffff1602179055505050600060405180604001604052806040518060400160405280600a81526020017f55534443202f2055534400000000000000000000000000000000000000000000815250815260200173a2f78ab2355fe2f984d808b5cee7fd0a93d5270e73ffffffffffffffffffffffffffffffffffffffff1681525090806001815401808255809150506001900390600052602060002090600202016000909190919091506000820151816000019081620003c8919062000792565b5060208201518160010160006101000a81548173ffffffffffffffffffffffffffffffffffffffff021916908373ffffffffffffffffffffffffffffffffffffffff1602179055505050600060405180604001604052806040518060400160405280600981526020017f474250202f20555344000000000000000000000000000000000000000000000081525081526020017391fab41f5f3be955963a986366edacff1aaeaa8373ffffffffffffffffffffffffffffffffffffffff1681525090806001815401808255809150506001900390600052602060002090600202016000909190919091506000820151816000019081620004c8919062000792565b5060208201518160010160006101000a81548173ffffffffffffffffffffffffffffffffffffffff021916908373ffffffffffffffffffffffffffffffffffffffff160217905550505062000879565b600081519050919050565b7f4e487b7100000000000000000000000000000000000000000000000000000000600052604160045260246000fd5b7f4e487b7100000000000000000000000000000000000000000000000000000000600052602260045260246000fd5b600060028204905060018216806200059a57607f821691505b602082108103620005b057620005af62000552565b5b50919050565b60008190508160005260206000209050919050565b60006020601f8301049050919050565b600082821b905092915050565b6000600883026200061a7fffffffffffffffffffffffffffffffffffffffffffffffffffffffffffffffff82620005db565b620006268683620005db565b95508019841693508086168417925050509392505050565b6000819050919050565b6000819050919050565b6000620006736200066d62000667846200063e565b62000648565b6200063e565b9050919050565b6000819050919050565b6200068f8362000652565b620006a76200069e826200067a565b848454620005e8565b825550505050565b600090565b620006be620006af565b620006cb81848462000684565b505050565b5b81811015620006f357620006e7600082620006b4565b600181019050620006d1565b5050565b601f82111562000742576200070c81620005b6565b6200071784620005cb565b8101602085101562000727578190505b6200073f6200073685620005cb565b830182620006d0565b50505b505050565b600082821c905092915050565b6000620007676000198460080262000747565b1980831691505092915050565b600062000782838362000754565b9150826002028217905092915050565b6200079d8262000518565b67ffffffffffffffff811115620007b957620007b862000523565b5b620007c5825462000581565b620007d2828285620006f7565b600060209050601f8311600181146200080a5760008415620007f5578287015190505b62000801858262000774565b86555062000871565b601f1984166200081a86620005b6565b60005b8281101562000844578489015182556001820191506020850194506020810190506200081d565b8683101562000864578489015162000860601f89168262000754565b8355505b6001600288020188555050505b505050505050565b61089580620008896000396000f3fe608060405234801561001057600080fd5b50600436106100415760003560e01c8063a0aead4d14610046578063cf35bdd014610064578063eac8f5b814610095575b600080fd5b61004e6100c6565b60405161005b91906103db565b60405180910390f35b61007e60048036038101906100799190610427565b6100d2565b60405161008c929190610525565b60405180910390f35b6100af60048036038101906100aa9190610427565b6101ae565b6040516100bd92919061056e565b60405180910390f35b60008080549050905090565b600081815481106100e257600080fd5b9060005260206000209060020201600091509050806000018054610105906105cd565b80601f0160208091040260200160405190810160405280929190818152602001828054610131906105cd565b801561017e5780601f106101535761010080835404028352916020019161017e565b820191906000526020600020905b81548152906001019060200180831161016157829003601f168201915b5050505050908060010160009054906101000a900473ffffffffffffffffffffffffffffffffffffffff16905082565b60606000808054905083106101f8576040517f08c379a00000000000000000000000000000000000000000000000000000000081526004016101ef9061064a565b60405180910390fd5b600080848154811061020d5761020c61066a565b5b9060005260206000209060020201604051806040016040529081600082018054610236906105cd565b80601f0160208091040260200160405190810160405280929190818152602001828054610262906105cd565b80156102af5780601f10610284576101008083540402835291602001916102af565b820191906000526020600020905b81548152906001019060200180831161029257829003601f168201915b505050505081526020016001820160009054906101000a900473ffffffffffffffffffffffffffffffffffffffff1673ffffffffffffffffffffffffffffffffffffffff1673ffffffffffffffffffffffffffffffffffffffff168152505090508060000151610322826020015161032c565b9250925050915091565b60008082905060008173ffffffffffffffffffffffffffffffffffffffff1663feaf968c6040518163ffffffff1660e01b815260040160a060405180830381865afa15801561037f573d6000803e3d6000fd5b505050506040513d601f19601f820116820180604052508101906103a3919061071c565b5050509150506305f5e100816103b991906107f5565b92505050919050565b6000819050919050565b6103d5816103c2565b82525050565b60006020820190506103f060008301846103cc565b92915050565b600080fd5b610404816103c2565b811461040f57600080fd5b50565b600081359050610421816103fb565b92915050565b60006020828403121561043d5761043c6103f6565b5b600061044b84828501610412565b91505092915050565b600081519050919050565b600082825260208201905092915050565b60005b8381101561048e578082015181840152602081019050610473565b60008484015250505050565b6000601f19601f8301169050919050565b60006104b682610454565b6104c0818561045f565b93506104d0818560208601610470565b6104d98161049a565b840191505092915050565b600073ffffffffffffffffffffffffffffffffffffffff82169050919050565b600061050f826104e4565b9050919050565b61051f81610504565b82525050565b6000604082019050818103600083015261053f81856104ab565b905061054e6020830184610516565b9392505050565b6000819050919050565b61056881610555565b82525050565b6000604082019050818103600083015261058881856104ab565b9050610597602083018461055f565b9392505050565b7f4e487b7100000000000000000000000000000000000000000000000000000000600052602260045260246000fd5b600060028204905060018216806105e557607f821691505b6020821081036105f8576105f761059e565b5b50919050565b7f496e76616c696420617373657420696e64657800000000000000000000000000600082015250565b600061063460138361045f565b915061063f826105fe565b602082019050919050565b6000602082019050818103600083015261066381610627565b9050919050565b7f4e487b7100000000000000000000000000000000000000000000000000000000600052603260045260246000fd5b600069ffffffffffffffffffff82169050919050565b6106b881610699565b81146106c357600080fd5b50565b6000815190506106d5816106af565b92915050565b6106e481610555565b81146106ef57600080fd5b50565b600081519050610701816106db565b92915050565b600081519050610716816103fb565b92915050565b600080600080600060a08688031215610738576107376103f6565b5b6000610746888289016106c6565b9550506020610757888289016106f2565b945050604061076888828901610707565b935050606061077988828901610707565b925050608061078a888289016106c6565b9150509295509295909350565b7f4e487b7100000000000000000000000000000000000000000000000000000000600052601260045260246000fd5b7f4e487b7100000000000000000000000000000000000000000000000000000000600052601160045260246000fd5b600061080082610555565b915061080b83610555565b92508261081b5761081a610797565b5b600160000383147f800000000000000000000000000000000000000000000000000000000000000083141615610854576108536107c6565b5b82820590509291505056fea2646970667358221220178a0cb86525addff38af48d58dc34560bc7cfb292e7fab555e6f43a8739578764736f6c63430008120033",
  "linkReferences": {},
  "deployedLinkReferences": {}
}